{
    "contractName": "BinarySystem",
    "abi": [
        {
            "inputs": [],
            "stateMutability": "nonpayable",
            "type": "constructor"
        },
        {
            "anonymous": false,
            "inputs": [
                {
                    "indexed": true,
                    "internalType": "address",
                    "name": "previousOwner",
                    "type": "address"
                },
                {
                    "indexed": true,
                    "internalType": "address",
                    "name": "newOwner",
                    "type": "address"
                }
            ],
            "name": "OwnershipTransferred",
            "type": "event"
        },
        {
            "stateMutability": "payable",
            "type": "fallback"
        },
        {
            "inputs": [
                {
                    "internalType": "address",
                    "name": "_tokenTRC20",
                    "type": "address"
                }
            ],
            "name": "ChangeTokenOTRO",
            "outputs": [
                {
                    "internalType": "bool",
                    "name": "",
                    "type": "bool"
                }
            ],
            "stateMutability": "nonpayable",
            "type": "function"
        },
        {
            "inputs": [
                {
                    "internalType": "address",
                    "name": "_tokenTRC20",
                    "type": "address"
                }
            ],
            "name": "ChangeTokenPrincipal",
            "outputs": [
                {
                    "internalType": "bool",
                    "name": "",
                    "type": "bool"
                }
            ],
            "stateMutability": "nonpayable",
            "type": "function"
        },
        {
            "inputs": [
                {
                    "internalType": "address",
                    "name": "_tokenTRC20",
                    "type": "address"
                }
            ],
            "name": "ChangeTokenSalida",
            "outputs": [
                {
                    "internalType": "bool",
                    "name": "",
                    "type": "bool"
                }
            ],
            "stateMutability": "nonpayable",
            "type": "function"
        },
        {
            "inputs": [],
            "name": "MIN_RETIRO",
            "outputs": [
                {
                    "internalType": "uint256",
                    "name": "",
                    "type": "uint256"
                }
            ],
            "stateMutability": "view",
            "type": "function"
        },
        {
            "inputs": [],
            "name": "MIN_RETIRO_interno",
            "outputs": [
                {
                    "internalType": "uint256",
                    "name": "",
                    "type": "uint256"
                }
            ],
            "stateMutability": "view",
            "type": "function"
        },
        {
            "inputs": [
                {
                    "internalType": "uint256",
                    "name": "",
                    "type": "uint256"
                }
            ],
            "name": "active",
            "outputs": [
                {
                    "internalType": "bool",
                    "name": "",
                    "type": "bool"
                }
            ],
            "stateMutability": "view",
            "type": "function"
        },
        {
            "inputs": [
                {
                    "internalType": "bool[]",
                    "name": "old",
                    "type": "bool[]"
                }
            ],
            "name": "actualizarArrayBool",
            "outputs": [
                {
                    "internalType": "bool[]",
                    "name": "",
                    "type": "bool[]"
                }
            ],
            "stateMutability": "pure",
            "type": "function"
        },
        {
            "inputs": [
                {
                    "internalType": "uint256[]",
                    "name": "old",
                    "type": "uint256[]"
                }
            ],
            "name": "actualizarArrayUint256",
            "outputs": [
                {
                    "internalType": "uint256[]",
                    "name": "",
                    "type": "uint256[]"
                }
            ],
            "stateMutability": "pure",
            "type": "function"
        },
        {
            "inputs": [
                {
                    "internalType": "address[]",
                    "name": "oldNetwork",
                    "type": "address[]"
                }
            ],
            "name": "actualizarNetwork",
            "outputs": [
                {
                    "internalType": "address[]",
                    "name": "",
                    "type": "address[]"
                }
            ],
            "stateMutability": "pure",
            "type": "function"
        },
        {
            "inputs": [
                {
                    "internalType": "uint256",
                    "name": "_value",
                    "type": "uint256"
                }
            ],
            "name": "addPlan",
            "outputs": [
                {
                    "internalType": "uint256[]",
                    "name": "",
                    "type": "uint256[]"
                }
            ],
            "stateMutability": "nonpayable",
            "type": "function"
        },
        {
            "inputs": [
                {
                    "internalType": "address",
                    "name": "",
                    "type": "address"
                }
            ],
            "name": "addressToId",
            "outputs": [
                {
                    "internalType": "uint256",
                    "name": "",
                    "type": "uint256"
                }
            ],
            "stateMutability": "view",
            "type": "function"
        },
        {
            "inputs": [
                {
                    "internalType": "address[]",
                    "name": "network",
                    "type": "address[]"
                }
            ],
            "name": "allnetwork",
            "outputs": [
                {
                    "internalType": "address[]",
                    "name": "",
                    "type": "address[]"
                }
            ],
            "stateMutability": "view",
            "type": "function"
        },
        {
            "inputs": [],
            "name": "api",
            "outputs": [
                {
                    "internalType": "address",
                    "name": "",
                    "type": "address"
                }
            ],
            "stateMutability": "view",
            "type": "function"
        },
        {
            "inputs": [
                {
                    "internalType": "address",
                    "name": "_user",
                    "type": "address"
                },
                {
                    "internalType": "uint256",
                    "name": "_plan",
                    "type": "uint256"
                },
                {
                    "internalType": "address",
                    "name": "_sponsor",
                    "type": "address"
                },
                {
                    "internalType": "uint256",
                    "name": "_hand",
                    "type": "uint256"
                }
            ],
            "name": "asignarPlan",
            "outputs": [
                {
                    "internalType": "bool",
                    "name": "",
                    "type": "bool"
                }
            ],
            "stateMutability": "nonpayable",
            "type": "function"
        },
        {
            "inputs": [
                {
                    "internalType": "address",
                    "name": "_user",
                    "type": "address"
                },
                {
                    "internalType": "uint256",
                    "name": "_puntosLeft",
                    "type": "uint256"
                },
                {
                    "internalType": "uint256",
                    "name": "_puntosRigth",
                    "type": "uint256"
                }
            ],
            "name": "asignarPuntosBinarios",
            "outputs": [
                {
                    "internalType": "bool",
                    "name": "",
                    "type": "bool"
                }
            ],
            "stateMutability": "nonpayable",
            "type": "function"
        },
        {
            "inputs": [],
            "name": "basePorcientos",
            "outputs": [
                {
                    "internalType": "uint256",
                    "name": "",
                    "type": "uint256"
                }
            ],
            "stateMutability": "view",
            "type": "function"
        },
        {
            "inputs": [
                {
                    "internalType": "uint256",
                    "name": "_plan",
                    "type": "uint256"
                }
            ],
            "name": "buyPlan",
            "outputs": [],
            "stateMutability": "nonpayable",
            "type": "function"
        },
        {
            "inputs": [
                {
                    "internalType": "uint256",
                    "name": "_value",
                    "type": "uint256"
                }
            ],
            "name": "buyValue",
            "outputs": [
                {
                    "internalType": "uint256",
                    "name": "",
                    "type": "uint256"
                }
            ],
            "stateMutability": "view",
            "type": "function"
        },
        {
            "inputs": [
                {
                    "internalType": "address",
                    "name": "yo",
                    "type": "address"
                },
                {
                    "internalType": "uint256",
                    "name": "_largo",
                    "type": "uint256"
                }
            ],
            "name": "column",
            "outputs": [
                {
                    "internalType": "address[]",
                    "name": "",
                    "type": "address[]"
                }
            ],
            "stateMutability": "view",
            "type": "function"
        },
        {
            "inputs": [
                {
                    "internalType": "bool",
                    "name": "_true_false",
                    "type": "bool"
                }
            ],
            "name": "controlBinario",
            "outputs": [
                {
                    "internalType": "bool",
                    "name": "",
                    "type": "bool"
                }
            ],
            "stateMutability": "nonpayable",
            "type": "function"
        },
        {
            "inputs": [
                {
                    "internalType": "bool",
                    "name": "_true_false",
                    "type": "bool"
                }
            ],
            "name": "controlReferidos",
            "outputs": [
                {
                    "internalType": "bool",
                    "name": "",
                    "type": "bool"
                }
            ],
            "stateMutability": "nonpayable",
            "type": "function"
        },
        {
            "inputs": [
                {
                    "internalType": "address",
                    "name": "_user",
                    "type": "address"
                }
            ],
            "name": "depositos",
            "outputs": [
                {
                    "internalType": "uint256[]",
                    "name": "",
                    "type": "uint256[]"
                },
                {
                    "internalType": "bool[]",
                    "name": "",
                    "type": "bool[]"
                },
                {
                    "internalType": "bool[]",
                    "name": "",
                    "type": "bool[]"
                },
                {
                    "internalType": "uint256",
                    "name": "",
                    "type": "uint256"
                }
            ],
            "stateMutability": "view",
            "type": "function"
        },
        {
            "inputs": [],
            "name": "descuento",
            "outputs": [
                {
                    "internalType": "uint256",
                    "name": "",
                    "type": "uint256"
                }
            ],
            "stateMutability": "view",
            "type": "function"
        },
        {
            "inputs": [],
            "name": "dias",
            "outputs": [
                {
                    "internalType": "uint256",
                    "name": "",
                    "type": "uint256"
                }
            ],
            "stateMutability": "view",
            "type": "function"
        },
        {
            "inputs": [
                {
                    "internalType": "address",
                    "name": "_user",
                    "type": "address"
                }
            ],
            "name": "handLeft",
            "outputs": [
                {
                    "internalType": "uint256",
                    "name": "extra",
                    "type": "uint256"
                },
                {
                    "internalType": "uint256",
                    "name": "lost",
                    "type": "uint256"
                },
                {
                    "internalType": "uint256",
                    "name": "reclamados",
                    "type": "uint256"
                },
                {
                    "internalType": "address",
                    "name": "referer",
                    "type": "address"
                }
            ],
            "stateMutability": "view",
            "type": "function"
        },
        {
            "inputs": [
                {
                    "internalType": "address",
                    "name": "_user",
                    "type": "address"
                }
            ],
            "name": "handRigth",
            "outputs": [
                {
                    "internalType": "uint256",
                    "name": "extra",
                    "type": "uint256"
                },
                {
                    "internalType": "uint256",
                    "name": "lost",
                    "type": "uint256"
                },
                {
                    "internalType": "uint256",
                    "name": "reclamados",
                    "type": "uint256"
                },
                {
                    "internalType": "address",
                    "name": "referer",
                    "type": "address"
                }
            ],
            "stateMutability": "view",
            "type": "function"
        },
        {
            "inputs": [
                {
                    "internalType": "uint256",
                    "name": "",
                    "type": "uint256"
                }
            ],
            "name": "idToAddress",
            "outputs": [
                {
                    "internalType": "address",
                    "name": "",
                    "type": "address"
                }
            ],
            "stateMutability": "view",
            "type": "function"
        },
        {
            "inputs": [
                {
                    "internalType": "address[]",
                    "name": "network",
                    "type": "address[]"
                }
            ],
            "name": "insertionLeft",
            "outputs": [
                {
                    "internalType": "address",
                    "name": "wallet",
                    "type": "address"
                }
            ],
            "stateMutability": "view",
            "type": "function"
        },
        {
            "inputs": [
                {
                    "internalType": "address[]",
                    "name": "network",
                    "type": "address[]"
                }
            ],
            "name": "insertionRigth",
            "outputs": [
                {
                    "internalType": "address",
                    "name": "wallet",
                    "type": "address"
                }
            ],
            "stateMutability": "view",
            "type": "function"
        },
        {
            "inputs": [
                {
                    "internalType": "address",
                    "name": "",
                    "type": "address"
                }
            ],
            "name": "investors",
            "outputs": [
                {
                    "internalType": "bool",
                    "name": "registered",
                    "type": "bool"
                },
                {
                    "internalType": "bool",
                    "name": "recompensa",
                    "type": "bool"
                },
                {
                    "internalType": "uint256",
                    "name": "plan",
                    "type": "uint256"
                },
                {
                    "internalType": "uint256",
                    "name": "balanceRef",
                    "type": "uint256"
                },
                {
                    "internalType": "uint256",
                    "name": "totalRef",
                    "type": "uint256"
                },
                {
                    "internalType": "uint256",
                    "name": "almacen",
                    "type": "uint256"
                },
                {
                    "internalType": "uint256",
                    "name": "invested",
                    "type": "uint256"
                },
                {
                    "internalType": "uint256",
                    "name": "paidAt",
                    "type": "uint256"
                },
                {
                    "internalType": "uint256",
                    "name": "amount",
                    "type": "uint256"
                },
                {
                    "internalType": "uint256",
                    "name": "withdrawn",
                    "type": "uint256"
                },
                {
                    "internalType": "uint256",
                    "name": "directos",
                    "type": "uint256"
                },
                {
                    "components": [
                        {
                            "internalType": "uint256",
                            "name": "lReclamados",
                            "type": "uint256"
                        },
                        {
                            "internalType": "uint256",
                            "name": "lLost",
                            "type": "uint256"
                        },
                        {
                            "internalType": "uint256",
                            "name": "lExtra",
                            "type": "uint256"
                        },
                        {
                            "internalType": "address",
                            "name": "lReferer",
                            "type": "address"
                        },
                        {
                            "internalType": "uint256",
                            "name": "rReclamados",
                            "type": "uint256"
                        },
                        {
                            "internalType": "uint256",
                            "name": "rLost",
                            "type": "uint256"
                        },
                        {
                            "internalType": "uint256",
                            "name": "rExtra",
                            "type": "uint256"
                        },
                        {
                            "internalType": "address",
                            "name": "rReferer",
                            "type": "address"
                        }
                    ],
                    "internalType": "struct BinarySystem.Hand",
                    "name": "hands",
                    "type": "tuple"
                }
            ],
            "stateMutability": "view",
            "type": "function"
        },
        {
            "inputs": [],
            "name": "lastUserId",
            "outputs": [
                {
                    "internalType": "uint256",
                    "name": "",
                    "type": "uint256"
                }
            ],
            "stateMutability": "view",
            "type": "function"
        },
        {
            "inputs": [],
            "name": "maxTime",
            "outputs": [
                {
                    "internalType": "uint256",
                    "name": "",
                    "type": "uint256"
                }
            ],
            "stateMutability": "view",
            "type": "function"
        },
        {
            "inputs": [],
            "name": "owner",
            "outputs": [
                {
                    "internalType": "address payable",
                    "name": "",
                    "type": "address"
                }
            ],
            "stateMutability": "view",
            "type": "function"
        },
        {
            "inputs": [
                {
                    "internalType": "address",
                    "name": "",
                    "type": "address"
                }
            ],
            "name": "padre",
            "outputs": [
                {
                    "internalType": "address",
                    "name": "",
                    "type": "address"
                }
            ],
            "stateMutability": "view",
            "type": "function"
        },
        {
            "inputs": [
                {
                    "internalType": "uint256",
                    "name": "_value",
                    "type": "uint256"
                }
            ],
            "name": "payValue",
            "outputs": [
                {
                    "internalType": "uint256",
                    "name": "",
                    "type": "uint256"
                }
            ],
            "stateMutability": "view",
            "type": "function"
        },
        {
            "inputs": [],
            "name": "personas",
            "outputs": [
                {
                    "internalType": "uint256",
                    "name": "",
                    "type": "uint256"
                }
            ],
            "stateMutability": "view",
            "type": "function"
        },
        {
            "inputs": [
                {
                    "internalType": "address",
                    "name": "any_user",
                    "type": "address"
                }
            ],
            "name": "personasBinary",
            "outputs": [
                {
                    "internalType": "uint256",
                    "name": "left",
                    "type": "uint256"
                },
                {
                    "internalType": "uint256",
                    "name": "pLeft",
                    "type": "uint256"
                },
                {
                    "internalType": "uint256",
                    "name": "rigth",
                    "type": "uint256"
                },
                {
                    "internalType": "uint256",
                    "name": "pRigth",
                    "type": "uint256"
                }
            ],
            "stateMutability": "view",
            "type": "function"
        },
        {
            "inputs": [
                {
                    "internalType": "uint256",
                    "name": "",
                    "type": "uint256"
                }
            ],
            "name": "plans",
            "outputs": [
                {
                    "internalType": "uint256",
                    "name": "",
                    "type": "uint256"
                }
            ],
            "stateMutability": "view",
            "type": "function"
        },
        {
            "inputs": [],
            "name": "plansLength",
            "outputs": [
                {
                    "internalType": "uint8",
                    "name": "",
                    "type": "uint8"
                }
            ],
            "stateMutability": "view",
            "type": "function"
        },
        {
            "inputs": [],
            "name": "porcent",
            "outputs": [
                {
                    "internalType": "uint256",
                    "name": "",
                    "type": "uint256"
                }
            ],
            "stateMutability": "view",
            "type": "function"
        },
        {
            "inputs": [],
            "name": "porcentPuntosBinario",
            "outputs": [
                {
                    "internalType": "uint256",
                    "name": "",
                    "type": "uint256"
                }
            ],
            "stateMutability": "view",
            "type": "function"
        },
        {
            "inputs": [],
            "name": "porcientoBuy",
            "outputs": [
                {
                    "internalType": "uint256",
                    "name": "",
                    "type": "uint256"
                }
            ],
            "stateMutability": "view",
            "type": "function"
        },
        {
            "inputs": [],
            "name": "porcientoPay",
            "outputs": [
                {
                    "internalType": "uint256",
                    "name": "",
                    "type": "uint256"
                }
            ],
            "stateMutability": "view",
            "type": "function"
        },
        {
            "inputs": [
                {
                    "internalType": "uint256",
                    "name": "",
                    "type": "uint256"
                }
            ],
            "name": "porcientos",
            "outputs": [
                {
                    "internalType": "uint256",
                    "name": "",
                    "type": "uint256"
                }
            ],
            "stateMutability": "view",
            "type": "function"
        },
        {
            "inputs": [],
            "name": "precioRegistro",
            "outputs": [
                {
                    "internalType": "uint256",
                    "name": "",
                    "type": "uint256"
                }
            ],
            "stateMutability": "view",
            "type": "function"
        },
        {
            "inputs": [
                {
                    "internalType": "uint256",
                    "name": "",
                    "type": "uint256"
                }
            ],
            "name": "primervez",
            "outputs": [
                {
                    "internalType": "uint256",
                    "name": "",
                    "type": "uint256"
                }
            ],
            "stateMutability": "view",
            "type": "function"
        },
        {
            "inputs": [
                {
                    "internalType": "address",
                    "name": "any_user",
                    "type": "address"
                }
            ],
            "name": "profit",
            "outputs": [
                {
                    "internalType": "uint256",
                    "name": "",
                    "type": "uint256"
                },
                {
                    "internalType": "uint256",
                    "name": "",
                    "type": "uint256"
                },
                {
                    "internalType": "uint256",
                    "name": "",
                    "type": "uint256"
                },
                {
                    "internalType": "bool",
                    "name": "",
                    "type": "bool"
                }
            ],
            "stateMutability": "view",
            "type": "function"
        },
        {
            "inputs": [],
            "name": "rate",
            "outputs": [
                {
                    "internalType": "uint256",
                    "name": "",
                    "type": "uint256"
                }
            ],
            "stateMutability": "view",
            "type": "function"
        },
        {
            "inputs": [],
            "name": "rate2",
            "outputs": [
                {
                    "internalType": "uint256",
                    "name": "",
                    "type": "uint256"
                }
            ],
            "stateMutability": "view",
            "type": "function"
        },
        {
            "inputs": [],
            "name": "rateSell",
            "outputs": [
                {
                    "internalType": "uint256",
                    "name": "",
                    "type": "uint256"
                }
            ],
            "stateMutability": "view",
            "type": "function"
        },
        {
            "inputs": [],
            "name": "redimOTRO",
            "outputs": [
                {
                    "internalType": "uint256",
                    "name": "",
                    "type": "uint256"
                }
            ],
            "stateMutability": "nonpayable",
            "type": "function"
        },
        {
            "inputs": [],
            "name": "redimSITE01",
            "outputs": [
                {
                    "internalType": "uint256",
                    "name": "",
                    "type": "uint256"
                }
            ],
            "stateMutability": "nonpayable",
            "type": "function"
        },
        {
            "inputs": [
                {
                    "internalType": "uint256",
                    "name": "_value",
                    "type": "uint256"
                }
            ],
            "name": "redimSITE02",
            "outputs": [
                {
                    "internalType": "uint256",
                    "name": "",
                    "type": "uint256"
                }
            ],
            "stateMutability": "nonpayable",
            "type": "function"
        },
        {
            "inputs": [],
            "name": "redimTRX",
            "outputs": [
                {
                    "internalType": "uint256",
                    "name": "",
                    "type": "uint256"
                }
            ],
            "stateMutability": "nonpayable",
            "type": "function"
        },
        {
            "inputs": [
                {
                    "internalType": "address",
                    "name": "_sponsor",
                    "type": "address"
                },
                {
                    "internalType": "uint8",
                    "name": "_hand",
                    "type": "uint8"
                }
            ],
            "name": "registro",
            "outputs": [],
            "stateMutability": "nonpayable",
            "type": "function"
        },
        {
            "inputs": [
                {
                    "internalType": "uint256",
                    "name": "_level",
                    "type": "uint256"
                },
                {
                    "internalType": "bool",
                    "name": "_value",
                    "type": "bool"
                }
            ],
            "name": "setActive",
            "outputs": [
                {
                    "internalType": "uint256",
                    "name": "",
                    "type": "uint256"
                },
                {
                    "internalType": "bool",
                    "name": "",
                    "type": "bool"
                }
            ],
            "stateMutability": "nonpayable",
            "type": "function"
        },
        {
            "inputs": [
                {
                    "internalType": "bool[]",
                    "name": "_values",
                    "type": "bool[]"
                }
            ],
            "name": "setActiveAll",
            "outputs": [
                {
                    "internalType": "bool[]",
                    "name": "",
                    "type": "bool[]"
                }
            ],
            "stateMutability": "nonpayable",
            "type": "function"
        },
        {
            "inputs": [
                {
                    "internalType": "uint256",
                    "name": "_base100",
                    "type": "uint256"
                }
            ],
            "name": "setBase",
            "outputs": [
                {
                    "internalType": "uint256",
                    "name": "",
                    "type": "uint256"
                }
            ],
            "stateMutability": "nonpayable",
            "type": "function"
        },
        {
            "inputs": [
                {
                    "internalType": "uint256",
                    "name": "_porcentajePago",
                    "type": "uint256"
                },
                {
                    "internalType": "uint256",
                    "name": "_personasBinario",
                    "type": "uint256"
                }
            ],
            "name": "setDescuentoPorNoTrabajo",
            "outputs": [
                {
                    "internalType": "uint256",
                    "name": "",
                    "type": "uint256"
                },
                {
                    "internalType": "uint256",
                    "name": "",
                    "type": "uint256"
                }
            ],
            "stateMutability": "nonpayable",
            "type": "function"
        },
        {
            "inputs": [
                {
                    "internalType": "uint256",
                    "name": "_min",
                    "type": "uint256"
                }
            ],
            "name": "setMIN_RETIRO",
            "outputs": [
                {
                    "internalType": "uint256",
                    "name": "",
                    "type": "uint256"
                }
            ],
            "stateMutability": "nonpayable",
            "type": "function"
        },
        {
            "inputs": [
                {
                    "internalType": "uint256",
                    "name": "_porcentajemaximoParahacerUpgrade",
                    "type": "uint256"
                }
            ],
            "name": "setMaxTime",
            "outputs": [
                {
                    "internalType": "uint256",
                    "name": "",
                    "type": "uint256"
                }
            ],
            "stateMutability": "nonpayable",
            "type": "function"
        },
        {
            "inputs": [
                {
                    "internalType": "uint256",
                    "name": "_level",
                    "type": "uint256"
                },
                {
                    "internalType": "uint256",
                    "name": "_value",
                    "type": "uint256"
                }
            ],
            "name": "setPlans",
            "outputs": [
                {
                    "internalType": "uint256",
                    "name": "",
                    "type": "uint256"
                },
                {
                    "internalType": "uint256",
                    "name": "",
                    "type": "uint256"
                }
            ],
            "stateMutability": "nonpayable",
            "type": "function"
        },
        {
            "inputs": [
                {
                    "internalType": "uint256[]",
                    "name": "_values",
                    "type": "uint256[]"
                }
            ],
            "name": "setPlansAll",
            "outputs": [
                {
                    "internalType": "uint256[]",
                    "name": "",
                    "type": "uint256[]"
                }
            ],
            "stateMutability": "nonpayable",
            "type": "function"
        },
        {
            "inputs": [
                {
                    "internalType": "uint256",
                    "name": "_nivel",
                    "type": "uint256"
                },
                {
                    "internalType": "uint256",
                    "name": "_value",
                    "type": "uint256"
                }
            ],
            "name": "setPorcientos",
            "outputs": [
                {
                    "internalType": "uint256[]",
                    "name": "",
                    "type": "uint256[]"
                }
            ],
            "stateMutability": "nonpayable",
            "type": "function"
        },
        {
            "inputs": [
                {
                    "internalType": "uint256",
                    "name": "_nivel",
                    "type": "uint256"
                },
                {
                    "internalType": "uint256",
                    "name": "_value",
                    "type": "uint256"
                }
            ],
            "name": "setPrimeravezPorcientos",
            "outputs": [
                {
                    "internalType": "uint256[]",
                    "name": "",
                    "type": "uint256[]"
                }
            ],
            "stateMutability": "nonpayable",
            "type": "function"
        },
        {
            "inputs": [
                {
                    "internalType": "uint256",
                    "name": "_porcentaje",
                    "type": "uint256"
                }
            ],
            "name": "setPuntosPorcentajeBinario",
            "outputs": [
                {
                    "internalType": "uint256",
                    "name": "",
                    "type": "uint256"
                }
            ],
            "stateMutability": "nonpayable",
            "type": "function"
        },
        {
            "inputs": [
                {
                    "internalType": "uint256",
                    "name": "_rateBuy",
                    "type": "uint256"
                },
                {
                    "internalType": "uint256",
                    "name": "_rateSell",
                    "type": "uint256"
                }
            ],
            "name": "setRates",
            "outputs": [],
            "stateMutability": "nonpayable",
            "type": "function"
        },
        {
            "inputs": [
                {
                    "internalType": "uint256",
                    "name": "_porcentaje",
                    "type": "uint256"
                }
            ],
            "name": "setRetorno",
            "outputs": [
                {
                    "internalType": "uint256",
                    "name": "",
                    "type": "uint256"
                }
            ],
            "stateMutability": "nonpayable",
            "type": "function"
        },
        {
            "inputs": [
                {
                    "internalType": "uint256",
                    "name": "_dias",
                    "type": "uint256"
                }
            ],
            "name": "setTiempo",
            "outputs": [
                {
                    "internalType": "uint256",
                    "name": "",
                    "type": "uint256"
                }
            ],
            "stateMutability": "nonpayable",
            "type": "function"
        },
        {
            "inputs": [
                {
                    "internalType": "uint256",
                    "name": "_unidades",
                    "type": "uint256"
                }
            ],
            "name": "setTiempoUnidades",
            "outputs": [
                {
                    "internalType": "uint256",
                    "name": "",
                    "type": "uint256"
                }
            ],
            "stateMutability": "nonpayable",
            "type": "function"
        },
        {
            "inputs": [
                {
                    "internalType": "address",
                    "name": "_wallet",
                    "type": "address"
                }
            ],
            "name": "setWalletApi",
            "outputs": [
                {
                    "internalType": "address",
                    "name": "",
                    "type": "address"
                }
            ],
            "stateMutability": "nonpayable",
            "type": "function"
        },
        {
            "inputs": [
                {
                    "internalType": "address",
                    "name": "_wallet1",
                    "type": "address"
                },
                {
                    "internalType": "address",
                    "name": "_wallet2",
                    "type": "address"
                },
                {
                    "internalType": "address",
                    "name": "_wallet3",
                    "type": "address"
                }
            ],
            "name": "setWalletstransfers",
            "outputs": [
                {
                    "internalType": "address",
                    "name": "",
                    "type": "address"
                },
                {
                    "internalType": "address",
                    "name": "",
                    "type": "address"
                },
                {
                    "internalType": "address",
                    "name": "",
                    "type": "address"
                }
            ],
            "stateMutability": "nonpayable",
            "type": "function"
        },
        {
            "inputs": [
                {
                    "internalType": "uint256",
                    "name": "_buy",
                    "type": "uint256"
                },
                {
                    "internalType": "uint256",
                    "name": "_pay",
                    "type": "uint256"
                }
            ],
            "name": "setporcientoBuyPay",
            "outputs": [
                {
                    "internalType": "uint256",
                    "name": "",
                    "type": "uint256"
                },
                {
                    "internalType": "uint256",
                    "name": "",
                    "type": "uint256"
                }
            ],
            "stateMutability": "nonpayable",
            "type": "function"
        },
        {
            "inputs": [],
            "name": "setstate",
            "outputs": [
                {
                    "internalType": "uint256",
                    "name": "Investors",
                    "type": "uint256"
                },
                {
                    "internalType": "uint256",
                    "name": "Invested",
                    "type": "uint256"
                },
                {
                    "internalType": "uint256",
                    "name": "RefRewards",
                    "type": "uint256"
                }
            ],
            "stateMutability": "view",
            "type": "function"
        },
        {
            "inputs": [],
            "name": "sisBinario",
            "outputs": [
                {
                    "internalType": "bool",
                    "name": "",
                    "type": "bool"
                }
            ],
            "stateMutability": "view",
            "type": "function"
        },
        {
            "inputs": [],
            "name": "sisReferidos",
            "outputs": [
                {
                    "internalType": "bool",
                    "name": "",
                    "type": "bool"
                }
            ],
            "stateMutability": "view",
            "type": "function"
        },
        {
            "inputs": [],
            "name": "tiempo",
            "outputs": [
                {
                    "internalType": "uint256",
                    "name": "",
                    "type": "uint256"
                }
            ],
            "stateMutability": "view",
            "type": "function"
        },
        {
            "inputs": [],
            "name": "tokenPago",
            "outputs": [
                {
                    "internalType": "address",
                    "name": "",
                    "type": "address"
                }
            ],
            "stateMutability": "view",
            "type": "function"
        },
        {
            "inputs": [],
            "name": "tokenPricipal",
            "outputs": [
                {
                    "internalType": "address",
                    "name": "",
                    "type": "address"
                }
            ],
            "stateMutability": "view",
            "type": "function"
        },
        {
            "inputs": [],
            "name": "totalInvested",
            "outputs": [
                {
                    "internalType": "uint256",
                    "name": "",
                    "type": "uint256"
                }
            ],
            "stateMutability": "view",
            "type": "function"
        },
        {
            "inputs": [],
            "name": "totalInvestors",
            "outputs": [
                {
                    "internalType": "uint256",
                    "name": "",
                    "type": "uint256"
                }
            ],
            "stateMutability": "view",
            "type": "function"
        },
        {
            "inputs": [],
            "name": "totalRefRewards",
            "outputs": [
                {
                    "internalType": "uint256",
                    "name": "",
                    "type": "uint256"
                }
            ],
            "stateMutability": "view",
            "type": "function"
        },
        {
            "inputs": [],
            "name": "transfer1",
            "outputs": [
                {
                    "internalType": "bool",
                    "name": "",
                    "type": "bool"
                }
            ],
            "stateMutability": "view",
            "type": "function"
        },
        {
            "inputs": [],
            "name": "transfer2",
            "outputs": [
                {
                    "internalType": "bool",
                    "name": "",
                    "type": "bool"
                }
            ],
            "stateMutability": "view",
            "type": "function"
        },
        {
            "inputs": [],
            "name": "transfer3",
            "outputs": [
                {
                    "internalType": "bool",
                    "name": "",
                    "type": "bool"
                }
            ],
            "stateMutability": "view",
            "type": "function"
        },
        {
            "inputs": [
                {
                    "internalType": "address payable",
                    "name": "newOwner",
                    "type": "address"
                }
            ],
            "name": "transferOwnership",
            "outputs": [],
            "stateMutability": "nonpayable",
            "type": "function"
        },
        {
            "inputs": [],
            "name": "unidades",
            "outputs": [
                {
                    "internalType": "uint256",
                    "name": "",
                    "type": "uint256"
                }
            ],
            "stateMutability": "view",
            "type": "function"
        },
        {
            "inputs": [],
            "name": "wallet1",
            "outputs": [
                {
                    "internalType": "address",
                    "name": "",
                    "type": "address"
                }
            ],
            "stateMutability": "view",
            "type": "function"
        },
        {
            "inputs": [],
            "name": "wallet2",
            "outputs": [
                {
                    "internalType": "address",
                    "name": "",
                    "type": "address"
                }
            ],
            "stateMutability": "view",
            "type": "function"
        },
        {
            "inputs": [],
            "name": "wallet3",
            "outputs": [
                {
                    "internalType": "address",
                    "name": "",
                    "type": "address"
                }
            ],
            "stateMutability": "view",
            "type": "function"
        },
        {
            "inputs": [],
            "name": "withdraw",
            "outputs": [],
            "stateMutability": "nonpayable",
            "type": "function"
        },
        {
            "inputs": [],
            "name": "withdrawToDeposit",
            "outputs": [],
            "stateMutability": "nonpayable",
            "type": "function"
        },
        {
            "inputs": [
                {
                    "internalType": "address",
                    "name": "any_user",
                    "type": "address"
                }
            ],
            "name": "withdrawable",
            "outputs": [
                {
                    "internalType": "uint256",
                    "name": "",
                    "type": "uint256"
                }
            ],
            "stateMutability": "view",
            "type": "function"
        },
        {
            "inputs": [
                {
                    "internalType": "address",
                    "name": "any_user",
                    "type": "address"
                }
            ],
            "name": "withdrawableBinary",
            "outputs": [
                {
                    "internalType": "uint256",
                    "name": "left",
                    "type": "uint256"
                },
                {
                    "internalType": "uint256",
                    "name": "rigth",
                    "type": "uint256"
                },
                {
                    "internalType": "uint256",
                    "name": "amount",
                    "type": "uint256"
                }
            ],
            "stateMutability": "view",
            "type": "function"
        },
        {
            "stateMutability": "payable",
            "type": "receive"
        }
    ],
    "bytecode": "620f4240600481905560088190556009556064600a819055600b8190556101206040526080908152600060a081905260c081905260e0819052610100526200004c90600c906005620002db565b506040805160a0810182526000808252602082018190529181018290526060810182905260808101919091526200008890600d906005620002db565b5060408051610200810182526000815263017d784060208201526302faf080918101919091526305f5e10060608201526311e1a3006080820152631dcd650060a0820152633b9aca0060c0820152637735940060e082015264012a05f20061010082015264174876e80061012082015264e8d4a510006101408201526501d1a94a20006101608201526502ba7def300061018082015265048c273950006101a082015266038d7ea4c680006101c082015266071afd498d00006101e08201526200015790600e90601062000330565b50604080516102008101825260008152600160208201819052918101829052606081018290526080810182905260a0810182905260c0810182905260e08101829052610100810182905261012081018290526101408101829052610160810182905261018081018290526101a081018290526101c081018290526101e0810191909152620001ea90600f90601062000379565b506103e86010556011805461ffff19166101011790556001601281905562015180601355605a60145560c8601555600a601655606460175560026018819055624c4b40601955601a919091556021553480156200024657600080fd5b5060008054336001600160a01b031991821681178355808352601d6020908152604080852060258054861685179055602480548616851790556023805486168517905560228054861685179055805461ffff19166101011790557f820fef5837650fa3b8e45045b88059d8deaf0810350ec511c47ef768a28c2c9b805490941690921790925590805290206001905562000432565b8280548282559060005260206000209081019282156200031e579160200282015b828111156200031e578251829060ff16905591602001919060010190620002fc565b506200032c9291506200041b565b5090565b8280548282559060005260206000209081019282156200031e579160200282015b828111156200031e578251829066ffffffffffffff1690559160200191906001019062000351565b82805482825590600052602060002090601f016020900481019282156200031e5791602002820160005b83821115620003e257835183826101000a81548160ff0219169083151502179055509260200192600101602081600001049283019260010302620003a3565b8015620004115782816101000a81549060ff0219169055600101602081600001049283019260010302620003e2565b50506200032c9291505b5b808211156200032c57600081556001016200041c565b61516b80620004426000396000f3fe6080604052600436106104e15760003560e01c8063725fc2701161027f578063b139042611610159578063ce513b6f116100c6578063ebe690bd11610082578063ebe690bd1461125c578063edc2fe291461127c578063f2fde38b1461129c578063f555b815146112bc578063f90b3f5a146112d2578063faafa907146112f257005b8063ce513b6f14611167578063ce51abb714611187578063d2c18e0b1461119d578063d8de4064146111bd578063e506e1c0146111dd578063e60a955d1461122757005b8063c2307ee611610115578063c2307ee6146110ba578063c510c060146110d0578063c8065ede146110f0578063cb0e0d7d14611110578063cc759ba21461113c578063cdb8bb2a1461115257005b8063b139042614610fee578063b16206161461100e578063b35f0a8f1461102e578063b9be8cdc14611064578063bfe0e02014611084578063c14b83611461109a57005b80638929cbc5116101f75780639de8c3cf116101b35780639de8c3cf14610f43578063a00a8c9b14610f63578063a80b223b14610f78578063a95b4df914610f98578063ab6db19914610fb8578063ac6af28014610fce57005b80638929cbc514610e795780638da5cb5b14610e8e5780639496e6f814610eae57806396ba536314610ee357806398b777e714610f035780639d1a5ea114610f2357005b80637e8ff94d116102465780637e8ff94d14610db75780637f65816614610dcd5780637faee04714610de75780637fcc1e3614610e075780638033d58114610e2757806385338e2014610e4757005b8063725fc27014610d365780637367b08014610d5657806378f1567114610d765780637b0412ed14610d8b5780637db9e9c614610da157005b80634b9b8203116103bb57806364417c89116103285780636999c45e116102e45780636999c45e14610ac45780636a88e29714610ae45780636bf199ff14610b385780636c52927914610b585780636d038a0314610b6e5780636f7bc9be14610b8e57005b806364417c8914610a005780636589fa8a14610a20578063664e62b914610a405780636657a04014610a7057806367583cf814610a8f57806368b058eb14610aaf57005b806350188c081161037757806350188c08146108f857806350da983f1461090d5780635216aeec1461092d578063548225221461094357806355465fa5146109635780635a090c2d146109e057005b80634b9b82031461081f5780634bdcd429146108355780634dbc9d151461084b5780634de1be62146108785780634e0e3323146108985780634e929b0f146108b857005b80632748d29b11610459578063348d448711610415578063348d44871461077e57806338e80f68146107945780633c918bae146107b45780633ccfd60b146107d457806342ccc234146107e95780634728f7181461080957005b80632748d29b146106bb57806328cca719146106db57806329b8caff146106fb5780632a2d0c47146107115780632c4e722e14610747578063343bfdff1461075d57005b80631ce7f99b116104a85780631ce7f99b146105d65780631e403c35146105f657806321adf6a41461062357806322e67e7114610654578063248c44e81461067857806326837aa81461069957005b806302550e4d146104ea5780630b8d0a281461053157806315e8392b1461056957806316a64416146105965780631a026c96146105b657005b366104e857005b005b3480156104f657600080fd5b5061050a610505366004614a0d565b611308565b60408051948552602085019390935291830152151560608201526080015b60405180910390f35b34801561053d57600080fd5b50602454610551906001600160a01b031681565b6040516001600160a01b039091168152602001610528565b34801561057557600080fd5b50610589610584366004614a75565b61142d565b6040516105289190614e44565b3480156105a257600080fd5b50600754610551906001600160a01b031681565b3480156105c257600080fd5b50602354610551906001600160a01b031681565b3480156105e257600080fd5b506105896105f1366004614b5d565b6114c4565b34801561060257600080fd5b50610616610611366004614db5565b611583565b6040516105289190614ea4565b34801561062f57600080fd5b5060255461064490600160b01b900460ff1681565b6040519015158152602001610528565b34801561066057600080fd5b5061066a60145481565b604051908152602001610528565b34801561068457600080fd5b5060255461064490600160a81b900460ff1681565b3480156106a557600080fd5b50600e5460405160ff9091168152602001610528565b3480156106c757600080fd5b5061066a6106d6366004614d5e565b611618565b3480156106e757600080fd5b5061066a6106f6366004614d5e565b611639565b34801561070757600080fd5b5061066a601a5481565b34801561071d57600080fd5b5061055161072c366004614d5e565b601f602052600090815260409020546001600160a01b031681565b34801561075357600080fd5b5061066a60085481565b34801561076957600080fd5b5060255461064490600160a01b900460ff1681565b34801561078a57600080fd5b5061066a60215481565b3480156107a057600080fd5b5061066a6107af366004614d5e565b61165a565b3480156107c057600080fd5b50602554610551906001600160a01b031681565b3480156107e057600080fd5b506104e861167b565b3480156107f557600080fd5b50610551610804366004614b5d565b611a33565b34801561081557600080fd5b5061066a60155481565b34801561082b57600080fd5b5061066a60135481565b34801561084157600080fd5b5061066a60055481565b34801561085757600080fd5b5061086b610866366004614c03565b611b20565b6040516105289190614e91565b34801561088457600080fd5b5061066a610893366004614d5e565b611bc6565b3480156108a457600080fd5b506106166108b3366004614c98565b611be7565b3480156108c457600080fd5b506108d86108d3366004614a0d565b611c6c565b604080519485526020850193909352918301526060820152608001610528565b34801561090457600080fd5b5061066a611e81565b34801561091957600080fd5b50610644610928366004614a0d565b611e9f565b34801561093957600080fd5b5061066a601b5481565b34801561094f57600080fd5b5061061661095e366004614db5565b611ee5565b34801561096f57600080fd5b506109b761097e366004614a0d565b6001600160a01b039081166000908152601d60205260409020600d810154600c820154600b830154600e90930154919490939190911690565b604080519485526020850193909352918301526001600160a01b03166060820152608001610528565b3480156109ec57600080fd5b506106446109fb366004614ae9565b611f78565b348015610a0c57600080fd5b5061066a610a1b366004614d5e565b611fe9565b348015610a2c57600080fd5b5061066a610a3b366004614d5e565b61200a565b348015610a4c57600080fd5b50610a60610a5b366004614a0d565b61202b565b6040516105289493929190614eb7565b348015610a7c57600080fd5b5060115461064490610100900460ff1681565b348015610a9b57600080fd5b5061066a610aaa366004614d5e565b6121dd565b348015610abb57600080fd5b5061066a612285565b348015610ad057600080fd5b50610616610adf366004614d5e565b6122a0565b348015610af057600080fd5b506109b7610aff366004614a0d565b6001600160a01b039081166000908152601d6020526040902060118101546010820154600f830154601290930154919490939190911690565b348015610b4457600080fd5b50610551610b53366004614b5d565b612385565b348015610b6457600080fd5b5061066a60045481565b348015610b7a57600080fd5b50610644610b89366004614a0d565b61245a565b348015610b9a57600080fd5b50610c74610ba9366004614a0d565b601d6020908152600091825260409182902080546001820154600283015460038401546004850154600586015460068701546007880154600889015460098a01548c516101008181018f52600b8d01548252600c8d01549d82019d909d52600d8c01549d81019d909d52600e8b01546001600160a01b0390811660608f0152600f8c015460808f015260108c015460a08f015260118c015460c08f01526012909b0154909a1660e08d015260ff808a169c9b909904909816999698959794969395929491939092908c565b604080519c15158d529a15156020808e01919091528c8c019a909a526060808d01999099526080808d019890985260a0808d019790975260c0808d019690965260e0808d01959095526101008c01939093526101208b01919091526101408a015280516101608a015295860151610180890152958501516101a0880152928401516001600160a01b039081166101c0880152918401516101e0870152830151610200860152908201516102208501529101511661024082015261026001610528565b348015610d4257600080fd5b5061066a610d51366004614d5e565b6124a5565b348015610d6257600080fd5b50610616610d71366004614c98565b6124b5565b348015610d8257600080fd5b5061066a612560565b348015610d9757600080fd5b5061066a60175481565b348015610dad57600080fd5b5061066a60195481565b348015610dc357600080fd5b5061066a600b5481565b348015610dd957600080fd5b506011546106449060ff1681565b348015610df357600080fd5b50610589610e02366004614b5d565b612685565b348015610e1357600080fd5b5061086b610e22366004614c03565b612845565b348015610e3357600080fd5b50610644610e42366004614d5e565b6128f5565b348015610e5357600080fd5b50601a54601b54601c545b60408051938452602084019290925290820152606001610528565b348015610e8557600080fd5b5061066a612929565b348015610e9a57600080fd5b50600054610551906001600160a01b031681565b348015610eba57600080fd5b50610ece610ec9366004614db5565b6129fa565b60408051928352602083019190915201610528565b348015610eef57600080fd5b50610644610efe366004614a0d565b612a49565b348015610f0f57600080fd5b5061066a610f1e366004614d5e565b612a86565b348015610f2f57600080fd5b50610644610f3e366004614d24565b612aa7565b348015610f4f57600080fd5b50610ece610f5e366004614db5565b612ad6565b348015610f6f57600080fd5b506104e8612b16565b348015610f8457600080fd5b506104e8610f93366004614d5e565b612c0b565b348015610fa457600080fd5b50610e5e610fb3366004614a0d565b6132d0565b348015610fc457600080fd5b5061066a60125481565b348015610fda57600080fd5b506104e8610fe9366004614db5565b6135e8565b348015610ffa57600080fd5b50600654610551906001600160a01b031681565b34801561101a57600080fd5b5061066a611029366004614d5e565b61365b565b34801561103a57600080fd5b50610551611049366004614a0d565b601e602052600090815260409020546001600160a01b031681565b34801561107057600080fd5b5061066a61107f366004614d5e565b61366b565b34801561109057600080fd5b5061066a601c5481565b3480156110a657600080fd5b506104e86110b5366004614b1e565b6137d4565b3480156110c657600080fd5b5061066a60165481565b3480156110dc57600080fd5b506105516110eb366004614a0d565b613d0a565b3480156110fc57600080fd5b5061066a61110b366004614d5e565b613d41565b34801561111c57600080fd5b5061066a61112b366004614a0d565b602080526000908152604090205481565b34801561114857600080fd5b5061066a60185481565b34801561115e57600080fd5b5061066a613da5565b34801561117357600080fd5b5061066a611182366004614a0d565b613dfe565b34801561119357600080fd5b5061066a600a5481565b3480156111a957600080fd5b50602254610551906001600160a01b031681565b3480156111c957600080fd5b506106446111d8366004614d24565b613e1d565b3480156111e957600080fd5b506111fd6111f8366004614a2a565b613e47565b604080516001600160a01b0394851681529284166020840152921691810191909152606001610528565b34801561123357600080fd5b50611247611242366004614d90565b613f7a565b60408051928352901515602083015201610528565b34801561126857600080fd5b50610644611277366004614aa1565b613fde565b34801561128857600080fd5b50610ece611297366004614db5565b6145c3565b3480156112a857600080fd5b506104e86112b7366004614a0d565b6145ed565b3480156112c857600080fd5b5061066a60095481565b3480156112de57600080fd5b5061066a6112ed366004614d5e565b614672565b3480156112fe57600080fd5b5061066a60105481565b6001600160a01b0381166000908152601d6020526040812060078101546002820154839283928392839182918280806113408d6132d0565b97509093509150821580159061135557508115155b801561136057508515155b801561137157506002886009015410155b156113af5785851061139a57611387868661509b565b94506113938688614f57565b96506113ab565b600094506113a88588614f57565b96505b5060015b6113b88d613dfe565b85106113ed576113c78d613dfe565b6113d1908661509b565b94506113dc8d613dfe565b6113e69088614f57565b96506113fe565b600094506113fb8588614f57565b96505b6114088488614f57565b965087600401548761141a9190614f57565b9d929c50909a5098509650505050505050565b60608060005b838110156114ba57611444826114c4565b6001600160a01b038087166000908152601e602052604090205482519294501690839083908110611477576114776150e3565b6001600160a01b039283166020918202929092018101919091529581166000908152601e90965260409095205490941693806114b2816150b2565b915050611433565b5090505b92915050565b60606000825160016114d69190614f57565b67ffffffffffffffff8111156114ee576114ee6150f9565b604051908082528060200260200182016040528015611517578160200160208202803683370190505b50905060005b835181101561157c57838181518110611538576115386150e3565b6020026020010151828281518110611552576115526150e3565b6001600160a01b039092166020928302919091019091015280611574816150b2565b91505061151d565b5092915050565b6000546060906001600160a01b0316331461159d57600080fd5b81600d84815481106115b1576115b16150e3565b9060005260206000200181905550600d80548060200260200160405190810160405280929190818152602001828054801561160b57602002820191906000526020600020905b8154815260200190600101908083116115f7575b5050505050905092915050565b600080546001600160a01b0316331461163057600080fd5b50601381905590565b600d818154811061164957600080fd5b600091825260209091200154905081565b600080546001600160a01b0316331461167257600080fd5b50601081905590565b336000818152601d602052604081209181908190819061169a90611308565b929650909450925090506116ad846121dd565b6002546040516370a0823160e01b81523060048201526001600160a01b03909116906370a082319060240160206040518083038186803b1580156116f057600080fd5b505afa158015611704573d6000803e3d6000fd5b505050506040513d601f19601f820116820180604052508101906117289190614d77565b101561177b5760405162461bcd60e51b815260206004820152601b60248201527f54686520636f6e747261637420686173206e6f2062616c616e6365000000000060448201526064015b60405180910390fd5b6004548410156117d95760405162461bcd60e51b8152602060048201526024808201527f546865206d696e696d756d207769746864726177616c206c696d69742072656160448201526318da195960e21b6064820152608401611772565b601854856009015410611885576002546001600160a01b031663a9059cbb33611801876121dd565b6040516001600160e01b031960e085901b1681526001600160a01b0390921660048301526024820152604401602060405180830381600087803b15801561184757600080fd5b505af115801561185b573d6000803e3d6000fd5b505050506040513d601f19601f8201168201806040525081019061187f9190614d41565b5061193f565b6002546017546001600160a01b039091169063a9059cbb9033906118bf906064906118b9906118b38b6121dd565b90614693565b906146cc565b6040516001600160e01b031960e085901b1681526001600160a01b0390921660048301526024820152604401602060405180830381600087803b15801561190557600080fd5b505af1158015611919573d6000803e3d6000fd5b505050506040513d601f19601f8201168201806040525081019061193d9190614d41565b505b80156119c4578183101561198b578285600b0160010160008282546119649190614f57565b9091555050601085018054849190600090611980908490614f57565b909155506119c49050565b8185600b0160010160008282546119a29190614f57565b90915550506010850180548391906000906119be908490614f57565b90915550505b6119e2856004015486600201546119db9190614f57565b85906146ee565b8560070160008282546119f5919061509b565b9250508190555083856008016000828254611a109190614f57565b909155505042600686015550506000600284018190556004909301929092555050565b6000805b8251811015611b10576000601d6000858481518110611a5857611a586150e3565b6020908102919091018101516001600160a01b0390811683529082019290925260400160002060128101549092501680611ab057848381518110611a9e57611a9e6150e3565b60200260200101519350505050919050565b611ab9856114c4565b9450808560018751611acb919061509b565b81518110611adb57611adb6150e3565b60200260200101906001600160a01b031690816001600160a01b03168152505050508080611b08906150b2565b915050611a37565b50611b1a82611a33565b50919050565b6000546060906001600160a01b03163314611b3a57600080fd5b8151611b4d90600f906020850190614918565b50600f805480602002602001604051908101604052809291908181526020018280548015611bba57602002820191906000526020600020906000905b825461010083900a900460ff161515815260206001928301818104948501949093039092029101808411611b895790505b50505050509050919050565b600080546001600160a01b03163314611bde57600080fd5b50600481905590565b6000546060906001600160a01b03163314611c0157600080fd5b8151611c1490600e9060208501906149bd565b50600e805480602002602001604051908101604052809291908181526020018280548015611bba57602002820191906000526020600020905b815481526020019060010190808311611c4d5750505050509050919050565b6001600160a01b038082166000908152601d60205260408120600e810154919283928392839290911615611d76576060611ca5816114c4565b600e83015481519192506001600160a01b0316908290600090611cca57611cca6150e3565b60200260200101906001600160a01b031690816001600160a01b031681525050611cf381612685565b905060005b8151811015611d7357601d6000838381518110611d1757611d176150e3565b60200260200101516001600160a01b03166001600160a01b031681526020019081526020016000209250826005015487611d519190614f57565b965085611d5d816150b2565b9650508080611d6b906150b2565b915050611cf8565b50505b506001600160a01b038086166000908152601d60205260409020601281015490911615611e79576060611da8816114c4565b601283015481519192506001600160a01b0316908290600090611dcd57611dcd6150e3565b60200260200101906001600160a01b031690816001600160a01b031681525050611df681612685565b905060005b8151811015611e7657601d6000838381518110611e1a57611e1a6150e3565b60200260200101516001600160a01b03166001600160a01b031681526020019081526020016000209250826005015485611e549190614f57565b945083611e60816150b2565b9450508080611e6e906150b2565b915050611dfb565b50505b509193509193565b6000611e9a60135460125461469390919063ffffffff16565b905090565b600080546001600160a01b03163314611eb757600080fd5b50600180546001600160a01b0383166001600160a01b03199182168117835560068054909216179055919050565b6000546060906001600160a01b03163314611eff57600080fd5b81600c8481548110611f1357611f136150e3565b9060005260206000200181905550600c80548060200260200160405190810160405280929190818152602001828054801561160b57602002820191906000526020600020908154815260200190600101908083116115f7575050505050905092915050565b600080546001600160a01b03163314611f9057600080fd5b6001600160a01b0384166000908152601d60205260408120600d8101805491928692611fbd908490614f57565b9091555050601181018054849190600090611fd9908490614f57565b9091555060019695505050505050565b600080546001600160a01b0316331461200157600080fd5b50601681905590565b600080546001600160a01b0316331461202257600080fd5b50601581905590565b6001600160a01b0381166000908152601d60205260408120606091829182919082808084805b600a8601548110156121cc57612066856124b5565b945061207184612845565b935061207c83612845565b9250600086600a018281548110612095576120956150e3565b9060005260206000209060030201905060006120af611e81565b82546120bb9190614f57565b9050600082600001548960060154116120d55782546120db565b88600601545b905060008242116120ec57426120ee565b825b90508082101561216257600284015460ff161561213d5761210d611e81565b612117838361509b565b8560010154612126919061507c565b6121309190614f6f565b61213a9087614f57565b95505b6001878681518110612151576121516150e3565b911515602092830291909101909101525b8360010154898681518110612179576121796150e3565b60209081029190910101526002840154885160ff909116908990879081106121a3576121a36150e3565b6020026020010190151590811515815250505050505080806121c4906150b2565b915050612051565b509299919850965090945092505050565b60006114be60646118b9600b546118b36121f5612285565b6002546040805163313ce56760e01b815290516118b9926001600160a01b03169163313ce567916004808301926020929190829003018186803b15801561223b57600080fd5b505afa15801561224f573d6000803e3d6000fd5b505050506040513d601f19601f820116820180604052508101906122739190614d77565b61227e90600a614fd4565b8990614693565b600060095460085414612299575060095490565b5060085490565b6000546060906001600160a01b031633146122ba57600080fd5b600e8054600181810183557fbb7b4a454dc3493923482f07822329ed19e8244eff582cc204f8554c3620c3fd909101849055600f8054918201815560005260208082047f8d1108e10bcb7c27dddfc02ed9d693a074039d026cf4ea4240b40f7d581ac80201805460ff601f9094166101000a9384021916909217909155815460408051828402810184019091528181529291830182828015611bba5760200282019190600052602060002090815481526020019060010190808311611c4d5750505050509050919050565b6000805b8251811015612450576000601d60008584815181106123aa576123aa6150e3565b6020908102919091018101516001600160a01b03908116835290820192909252604001600020600e81015490925016806123f057848381518110611a9e57611a9e6150e3565b6123f9856114c4565b945080856001875161240b919061509b565b8151811061241b5761241b6150e3565b60200260200101906001600160a01b031690816001600160a01b03168152505050508080612448906150b2565b915050612389565b50611b1a82612385565b600080546001600160a01b0316331461247257600080fd5b50600280546001600160a01b0383166001600160a01b031991821681179092556007805490911690911790556001919050565b600c818154811061164957600080fd5b60606000825160016124c79190614f57565b67ffffffffffffffff8111156124df576124df6150f9565b604051908082528060200260200182016040528015612508578160200160208202803683370190505b50905060005b835181101561157c57838181518110612529576125296150e3565b6020026020010151828281518110612543576125436150e3565b602090810291909101015280612558816150b2565b91505061250e565b600080546001600160a01b0316331461257857600080fd5b6001546040516370a0823160e01b81523060048201526000916001600160a01b0316906370a082319060240160206040518083038186803b1580156125bc57600080fd5b505afa1580156125d0573d6000803e3d6000fd5b505050506040513d601f19601f820116820180604052508101906125f49190614d77565b60015460005460405163a9059cbb60e01b81526001600160a01b03918216600482015260248101849052929350169063a9059cbb906044015b602060405180830381600087803b15801561264757600080fd5b505af115801561265b573d6000803e3d6000fd5b505050506040513d601f19601f8201168201806040525081019061267f9190614d41565b50905090565b606060005b825181101561283e576000601d60008584815181106126ab576126ab6150e3565b6020908102919091018101516001600160a01b039081168352908201929092526040016000908120600e810154601282015491945083169216905b865181101561277157868181518110612701576127016150e3565b60200260200101516001600160a01b0316836001600160a01b0316141561272757600092505b868181518110612739576127396150e3565b60200260200101516001600160a01b0316826001600160a01b0316141561275f57600091505b80612769816150b2565b9150506126e6565b506001600160a01b038216156127cd5761278a866114c4565b955081866001885161279c919061509b565b815181106127ac576127ac6150e3565b60200260200101906001600160a01b031690816001600160a01b0316815250505b6001600160a01b03811615612828576127e5866114c4565b95508086600188516127f7919061509b565b81518110612807576128076150e3565b60200260200101906001600160a01b031690816001600160a01b0316815250505b5050508080612836906150b2565b91505061268a565b5090919050565b60606000825160016128579190614f57565b67ffffffffffffffff81111561286f5761286f6150f9565b604051908082528060200260200182016040528015612898578160200160208202803683370190505b50905060005b835181101561157c578381815181106128b9576128b96150e3565b60200260200101518282815181106128d3576128d36150e3565b91151560209283029190910190910152806128ed816150b2565b91505061289e565b600f818154811061290557600080fd5b9060005260206000209060209182820401919006915054906101000a900460ff1681565b600080546001600160a01b0316331461294157600080fd5b6003546040516370a0823160e01b81523060048201526000916001600160a01b0316906370a082319060240160206040518083038186803b15801561298557600080fd5b505afa158015612999573d6000803e3d6000fd5b505050506040513d601f19601f820116820180604052508101906129bd9190614d77565b60035460005460405163a9059cbb60e01b81526001600160a01b03918216600482015260248101849052929350169063a9059cbb9060440161262d565b6000805481906001600160a01b03163314612a1457600080fd5b612a22836305f5e10061507c565b600e8581548110612a3557612a356150e3565b600091825260209091200155509192909150565b600080546001600160a01b03163314612a6157600080fd5b50600380546001600160a01b0383166001600160a01b03199091161790556001919050565b600080546001600160a01b03163314612a9e57600080fd5b50601481905590565b600080546001600160a01b03163314612abf57600080fd5b506011805461ff0019166101008315150217905590565b6000805481906001600160a01b03163314612af057600080fd5b60178490556018839055601554612b0e906064906118b99087614693565b949293505050565b336000818152601d6020526040812091819081908190612b3590611308565b929650909450925090508015612bc45781831015612b8b578285600b016000016000828254612b649190614f57565b9091555050600f85018054849190600090612b80908490614f57565b90915550612bc49050565b8185600b016000016000828254612ba29190614f57565b9091555050600f85018054839190600090612bbe908490614f57565b90915550505b612bdb856004015486600201546119db9190614f57565b856007016000828254612bee919061509b565b909155505050505060048201554260068201556000600290910155565b600e548111801590612c1d5750600081115b612c5b5760405162461bcd60e51b815260206004820152600f60248201526e706c616e20696e636f72726563746f60881b6044820152606401611772565b600f8181548110612c6e57612c6e6150e3565b90600052602060002090602091828204019190069054906101000a900460ff16612ccd5760405162461bcd60e51b815260206004820152601060248201526f706c616e20646573616374697661646f60801b6044820152606401611772565b336000908152601d60205260409020805460ff16156132cb576000600e8381548110612cfb57612cfb6150e3565b90600052602060002001549050612d1181613d41565b600154604051636eb1769f60e11b81523360048201523060248201526001600160a01b039091169063dd62ed3e9060440160206040518083038186803b158015612d5a57600080fd5b505afa158015612d6e573d6000803e3d6000fd5b505050506040513d601f19601f82011682018060405250810190612d929190614d77565b1015612dd85760405162461bcd60e51b81526020600482015260156024820152746170726f7661646f20696e737566696369656e746560581b6044820152606401611772565b6001546001600160a01b03166323b872dd3330612df485613d41565b6040516001600160e01b031960e086901b1681526001600160a01b0393841660048201529290911660248301526044820152606401602060405180830381600087803b158015612e4357600080fd5b505af1158015612e57573d6000803e3d6000fd5b505050506040513d601f19601f82011682018060405250810190612e7b9190614d41565b612ebc5760405162461bcd60e51b815260206004820152601260248201527173616c646f20696e737566696369656e746560701b6044820152606401611772565b336000908152601e60205260409020546001600160a01b031615801590612ee5575060115460ff165b15612fac576001820154612f5357612f4e3382600c805480602002602001604051908101604052809291908181526020018280548015612f4457602002820191906000526020600020905b815481526020019060010190808311612f30575b5050505050614709565b612fac565b612fac3382600d805480602002602001604051908101604052809291908181526020018280548015612f445760200282019190600052602060002090815481526020019060010190808311612f30575050505050614709565b81600a016040518060600160405280428152602001612fe1612fda60646015546146cc90919063ffffffff16565b8590614693565b815260016020918201819052835480820185556000948552828520845160039092020190815591830151908201556040909101516002909101805460ff191691151591909117905560058301805483929061303d908490614f57565b909155505060155461305b906130549060646146cc565b8290614693565b82600701600082825461306e9190614f57565b9250508190555080601b60008282546130879190614f57565b9091555050602554600160a01b900460ff161561314a576001546023546001600160a01b039182169163a9059cbb91166130ca60646118b9600a6118b388613d41565b6040516001600160e01b031960e085901b1681526001600160a01b0390921660048301526024820152604401602060405180830381600087803b15801561311057600080fd5b505af1158015613124573d6000803e3d6000fd5b505050506040513d601f19601f820116820180604052508101906131489190614d41565b505b602554600160a81b900460ff1615613208576001546024546001600160a01b039182169163a9059cbb911661318860646118b960076118b388613d41565b6040516001600160e01b031960e085901b1681526001600160a01b0390921660048301526024820152604401602060405180830381600087803b1580156131ce57600080fd5b505af11580156131e2573d6000803e3d6000fd5b505050506040513d601f19601f820116820180604052508101906132069190614d41565b505b602554600160b01b900460ff16156132c6576001546025546001600160a01b039182169163a9059cbb911661324660646118b9600a6118b388613d41565b6040516001600160e01b031960e085901b1681526001600160a01b0390921660048301526024820152604401602060405180830381600087803b15801561328c57600080fd5b505af11580156132a0573d6000803e3d6000fd5b505050506040513d601f19601f820116820180604052508101906132c49190614d41565b505b505050565b600080fd5b6001600160a01b038082166000908152601d60205260408120600e8101549192839283929116156133c9576060613306816114c4565b600e83015481519192506001600160a01b031690829060009061332b5761332b6150e3565b60200260200101906001600160a01b031690816001600160a01b03168152505061335481612685565b905060005b81518110156133c657601d6000838381518110613378576133786150e3565b60200260200101516001600160a01b03166001600160a01b0316815260200190815260200160002092508260050154866133b29190614f57565b9550806133be816150b2565b915050613359565b50505b506001600160a01b0384166000908152601d60205260409020600d8101546133f19085614f57565b600c820154600b83015491955061340891906148fc565b613412908561509b565b60128201549094506001600160a01b0316156134f6576060613433816114c4565b601283015481519192506001600160a01b0316908290600090613458576134586150e3565b60200260200101906001600160a01b031690816001600160a01b03168152505061348181612685565b905060005b81518110156134f357601d60008383815181106134a5576134a56150e3565b60200260200101516001600160a01b03166001600160a01b0316815260200190815260200160002092508260050154856134df9190614f57565b9450806134eb816150b2565b915050613486565b50505b506001600160a01b0384166000908152601d60205260409020601181015461351e9084614f57565b6010820154600f83015491945061353591906148fc565b61353f908461509b565b92508284101561359a57806007015461356860646118b96016548861469390919063ffffffff16565b1161358e5761358760646118b96016548761469390919063ffffffff16565b91506135e0565b806007015491506135e0565b80600701546135b960646118b96016548761469390919063ffffffff16565b116135d85761358760646118b96016548661469390919063ffffffff16565b806007015491505b509193909250565b6000546001600160a01b031633148061360b57506022546001600160a01b031633145b6136505760405162461bcd60e51b81526020600482015260166024820152752737903a34b2b732b99030baba37b934bd30b1b4b7b760511b6044820152606401611772565b600891909155600955565b600e818154811061164957600080fd5b600080546001600160a01b0316331461368357600080fd5b6001546040516370a0823160e01b815230600482015283916001600160a01b0316906370a082319060240160206040518083038186803b1580156136c657600080fd5b505afa1580156136da573d6000803e3d6000fd5b505050506040513d601f19601f820116820180604052508101906136fe9190614d77565b101561374c5760405162461bcd60e51b815260206004820152601b60248201527f54686520636f6e747261637420686173206e6f2062616c616e636500000000006044820152606401611772565b60015460005460405163a9059cbb60e01b81526001600160a01b0391821660048201526024810185905291169063a9059cbb90604401602060405180830381600087803b15801561379c57600080fd5b505af11580156137b0573d6000803e3d6000fd5b505050506040513d601f19601f8201168201806040525081019061283e9190614d41565b60018160ff16111561381a5760405162461bcd60e51b815260206004820152600f60248201526e6d616e6f20696e636f72726563746160881b6044820152606401611772565b336000908152601d60205260409020805460ff16156138715760405162461bcd60e51b81526020600482015260136024820152727961206573746173207265676973747261646f60681b6044820152606401611772565b601954600154604051636eb1769f60e11b81523360048201523060248201526001600160a01b039091169063dd62ed3e9060440160206040518083038186803b1580156138bd57600080fd5b505afa1580156138d1573d6000803e3d6000fd5b505050506040513d601f19601f820116820180604052508101906138f59190614d77565b101561393b5760405162461bcd60e51b81526020600482015260156024820152746170726f7661646f20696e737566696369656e746560581b6044820152606401611772565b6001546019546040516323b872dd60e01b815233600482015230602482015260448101919091526001600160a01b03909116906323b872dd90606401602060405180830381600087803b15801561399157600080fd5b505af11580156139a5573d6000803e3d6000fd5b505050506040513d601f19601f820116820180604052508101906139c99190614d41565b613a0a5760405162461bcd60e51b815260206004820152601260248201527173616c646f20696e737566696369656e746560701b6044820152606401611772565b602554600160b01b900460ff1615613aaa5760015460255460195460405163a9059cbb60e01b81526001600160a01b039283166004820152602481019190915291169063a9059cbb90604401602060405180830381600087803b158015613a7057600080fd5b505af1158015613a84573d6000803e3d6000fd5b505050506040513d601f19601f82011682018060405250810190613aa89190614d41565b505b805461ffff1916610101178155336000908152601e6020526040902080546001600160a01b0319166001600160a01b03851690811790915515801590613af75750601154610100900460ff165b15613cab576001600160a01b0383166000908152601d602052604081206009810180549192613b25836150b2565b909155505060ff8316613bf057600e8101546001600160a01b0316613b5d57600e810180546001600160a01b03191633179055613ca9565b6060613b68816114c4565b600e83015481519192506001600160a01b0316908290600090613b8d57613b8d6150e3565b60200260200101906001600160a01b031690816001600160a01b031681525050601d6000613bba83612385565b6001600160a01b031681526020810191909152604001600020600e810180546001600160a01b031916331790559150613ca99050565b60128101546001600160a01b0316613c1b576012810180546001600160a01b03191633179055613ca9565b6060613c26816114c4565b601283015481519192506001600160a01b0316908290600090613c4b57613c4b6150e3565b60200260200101906001600160a01b031690816001600160a01b031681525050601d6000613c7883611a33565b6001600160a01b0316815260208101919091526040016000206012810180546001600160a01b031916331790559150505b505b601a8054906000613cbb836150b2565b9091555050602180546000908152601f6020908152604080832080546001600160a01b03191633908117909155845490845291805282208190559190613d00836150b2565b9190505550505050565b600080546001600160a01b03163314613d2257600080fd5b50602280546001600160a01b0319166001600160a01b03831617905590565b60006114be60646118b9600a546118b36008546118b9600160009054906101000a90046001600160a01b03166001600160a01b031663313ce5676040518163ffffffff1660e01b815260040160206040518083038186803b15801561223b57600080fd5b600080546001600160a01b03163314613dbd57600080fd5b600080546040516001600160a01b03909116914780156108fc02929091818181858888f19350505050158015613df7573d6000803e3d6000fd5b5047905090565b600060608060606000613e108661202b565b9998505050505050505050565b600080546001600160a01b03163314613e3557600080fd5b506011805460ff191682151517905590565b60008054819081906001600160a01b03163314613e6357600080fd5b6001600160a01b038616613e9357602380546001600160a01b03191690556025805460ff60a01b19169055613ec4565b602380546001600160a01b0388166001600160a01b03199091161790556025805460ff60a01b1916600160a01b1790555b6001600160a01b038516613ef457602480546001600160a01b03191690556025805460ff60a81b19169055613f25565b602480546001600160a01b0387166001600160a01b03199091161790556025805460ff60a81b1916600160a81b1790555b6001600160a01b038416613f4a5760258054600162ff000160a01b0319169055613f6e565b60258054600162ff000160a01b0319166001600160a01b03861617600160b01b1790555b50939492935090919050565b6000805481906001600160a01b03163314613f9457600080fd5b82600f8581548110613fa857613fa86150e3565b90600052602060002090602091828204019190066101000a81548160ff0219169083151502179055508383915091509250929050565b600080546001600160a01b03163314613ff657600080fd5b60018211156140395760405162461bcd60e51b815260206004820152600f60248201526e6d616e6f20696e636f72726563746160881b6044820152606401611772565b600e54841180159061404b5750600084115b6140895760405162461bcd60e51b815260206004820152600f60248201526e706c616e20696e636f72726563746f60881b6044820152606401611772565b600f848154811061409c5761409c6150e3565b90600052602060002090602091828204019190069054906101000a900460ff166140fb5760405162461bcd60e51b815260206004820152601060248201526f706c616e20646573616374697661646f60801b6044820152606401611772565b6001600160a01b0385166000908152601d60205260408120600e80549192918790811061412a5761412a6150e3565b9060005260206000200154905081600a016040518060600160405280428152602001614165612fda60646015546146cc90919063ffffffff16565b815260006020918201819052835460018082018655948252828220845160039092020190815591830151938201939093556040909101516002909101805460ff19169115159190911790556005830180548392906141c4908490614f57565b90915550506015546141db906130549060646146cc565b8260070160008282546141ee9190614f57565b909155505060018201819055815460ff166145b657815461ffff19166101011782556001600160a01b038781166000908152601e6020526040902080546001600160a01b0319169187169182179055158015906142525750601154610100900460ff165b15614515576001600160a01b0385166000908152601d602052604081206009810180549192614280836150b2565b90915550508461435957600e8101546001600160a01b03166142be57600e810180546001600160a01b0319166001600160a01b038a16179055614423565b60606142c9816114c4565b600e83015481519192506001600160a01b03169082906000906142ee576142ee6150e3565b60200260200101906001600160a01b031690816001600160a01b031681525050601d600061431b83612385565b6001600160a01b0390811682526020820192909252604001600020600e810180546001600160a01b031916928c169290921790915591506144239050565b60128101546001600160a01b031661438d576012810180546001600160a01b0319166001600160a01b038a16179055614423565b6060614398816114c4565b601283015481519192506001600160a01b03169082906000906143bd576143bd6150e3565b60200260200101906001600160a01b031690816001600160a01b031681525050601d60006143ea83611a33565b6001600160a01b03908116825260208201929092526040016000206012810180546001600160a01b031916928c16929092179091559150505b6001600160a01b038881166000908152601e6020526040902054161580159061444e575060115460ff165b156144ac576144ac8883600c805480602002602001604051908101604052809291908181526020018280548015612f445760200282019190600052602060002090815481526020019060010190808311612f30575050505050614709565b601a80549060006144bc836150b2565b9091555050602180546000908152601f6020908152604080832080546001600160a01b0319166001600160a01b038e1690811790915584549084529180528220819055919061450a836150b2565b91905055505061459e565b6001600160a01b038781166000908152601e60205260409020541615801590614540575060115460ff165b1561459e5761459e8782600d805480602002602001604051908101604052809291908181526020018280548015612f445760200282019190600052602060002090815481526020019060010190808311612f30575050505050614709565b80601b60008282546145b09190614f57565b90915550505b5060019695505050505050565b6000805481906001600160a01b031633146145dd57600080fd5b5050600a829055600b8190559091565b6000546001600160a01b0316331461460457600080fd5b6001600160a01b03811661461757600080fd5b600080546040516001600160a01b03808516939216917f8be0079c531659141344cd1fd0a4f28419497f9722a3daafe3b4186f6b6457e091a3600080546001600160a01b0319166001600160a01b0392909216919091179055565b600080546001600160a01b0316331461468a57600080fd5b50601281905590565b6000826146a2575060006114be565b60006146ae838561507c565b9050826146bb8583614f6f565b146146c557600080fd5b9392505050565b60008082116146da57600080fd5b60006146e68385614f6f565b949350505050565b6000828211156146fd57600080fd5b60006146e6838561509b565b606061471684835161142d565b90506000805b83518110156148f4576000601d600085848151811061473d5761473d6150e3565b6020908102919091018101516001600160a01b03168252810191909152604001600020805490915060ff16801561478e5750848281518110614781576147816150e3565b6020026020010151600014155b80156147a057508054610100900460ff165b156148e15760006001600160a01b03168483815181106147c2576147c26150e3565b60200260200101516001600160a01b0316146148db5761480a6010546118b98785815181106147f3576147f36150e3565b60200260200101518961469390919063ffffffff16565b925082816007015410614885578281600701600082825461482b919061509b565b92505081905550828160020160008282546148469190614f57565b92505081905550828160030160008282546148619190614f57565b9250508190555082601c600082825461487a9190614f57565b909155506148e19050565b60006007820181905560028201805482906148a1908290614f57565b909155505060078101546003820180546000906148bf908490614f57565b90915550506007810154601c805460009061487a908490614f57565b506148f4565b50806148ec816150b2565b91505061471c565b505050505050565b6000806149098385614f57565b9050838110156146c557600080fd5b82805482825590600052602060002090601f016020900481019282156149ad5791602002820160005b8382111561497e57835183826101000a81548160ff0219169083151502179055509260200192600101602081600001049283019260010302614941565b80156149ab5782816101000a81549060ff021916905560010160208160000104928301926001030261497e565b505b506149b99291506149f8565b5090565b8280548282559060005260206000209081019282156149ad579160200282015b828111156149ad5782518255916020019190600101906149dd565b5b808211156149b957600081556001016149f9565b600060208284031215614a1f57600080fd5b81356146c58161510f565b600080600060608486031215614a3f57600080fd5b8335614a4a8161510f565b92506020840135614a5a8161510f565b91506040840135614a6a8161510f565b809150509250925092565b60008060408385031215614a8857600080fd5b8235614a938161510f565b946020939093013593505050565b60008060008060808587031215614ab757600080fd5b8435614ac28161510f565b9350602085013592506040850135614ad98161510f565b9396929550929360600135925050565b600080600060608486031215614afe57600080fd5b8335614b098161510f565b95602085013595506040909401359392505050565b60008060408385031215614b3157600080fd5b8235614b3c8161510f565b9150602083013560ff81168114614b5257600080fd5b809150509250929050565b60006020808385031215614b7057600080fd5b823567ffffffffffffffff811115614b8757600080fd5b8301601f81018513614b9857600080fd5b8035614bab614ba682614f33565b614f02565b80828252848201915084840188868560051b8701011115614bcb57600080fd5b600094505b83851015614bf7578035614be38161510f565b835260019490940193918501918501614bd0565b50979650505050505050565b60006020808385031215614c1657600080fd5b823567ffffffffffffffff811115614c2d57600080fd5b8301601f81018513614c3e57600080fd5b8035614c4c614ba682614f33565b80828252848201915084840188868560051b8701011115614c6c57600080fd5b600094505b83851015614bf7578035614c8481615127565b835260019490940193918501918501614c71565b60006020808385031215614cab57600080fd5b823567ffffffffffffffff811115614cc257600080fd5b8301601f81018513614cd357600080fd5b8035614ce1614ba682614f33565b80828252848201915084840188868560051b8701011115614d0157600080fd5b600094505b83851015614bf7578035835260019490940193918501918501614d06565b600060208284031215614d3657600080fd5b81356146c581615127565b600060208284031215614d5357600080fd5b81516146c581615127565b600060208284031215614d7057600080fd5b5035919050565b600060208284031215614d8957600080fd5b5051919050565b60008060408385031215614da357600080fd5b823591506020830135614b5281615127565b60008060408385031215614dc857600080fd5b50508035926020909101359150565b600081518084526020808501945080840160005b83811015614e09578151151587529582019590820190600101614deb565b509495945050505050565b600081518084526020808501945080840160005b83811015614e0957815187529582019590820190600101614e28565b6020808252825182820181905260009190848201906040850190845b81811015614e855783516001600160a01b031683529284019291840191600101614e60565b50909695505050505050565b6020815260006146c56020830184614dd7565b6020815260006146c56020830184614e14565b608081526000614eca6080830187614e14565b8281036020840152614edc8187614dd7565b90508281036040840152614ef08186614dd7565b91505082606083015295945050505050565b604051601f8201601f1916810167ffffffffffffffff81118282101715614f2b57614f2b6150f9565b604052919050565b600067ffffffffffffffff821115614f4d57614f4d6150f9565b5060051b60200190565b60008219821115614f6a57614f6a6150cd565b500190565b600082614f8c57634e487b7160e01b600052601260045260246000fd5b500490565b600181815b80851115614fcc578160001904821115614fb257614fb26150cd565b80851615614fbf57918102915b93841c9390800290614f96565b509250929050565b60006146c58383600082614fea575060016114be565b81614ff7575060006114be565b816001811461500d576002811461501757615033565b60019150506114be565b60ff841115615028576150286150cd565b50506001821b6114be565b5060208310610133831016604e8410600b8410161715615056575081810a6114be565b6150608383614f91565b8060001904821115615074576150746150cd565b029392505050565b6000816000190483118215151615615096576150966150cd565b500290565b6000828210156150ad576150ad6150cd565b500390565b60006000198214156150c6576150c66150cd565b5060010190565b634e487b7160e01b600052601160045260246000fd5b634e487b7160e01b600052603260045260246000fd5b634e487b7160e01b600052604160045260246000fd5b6001600160a01b038116811461512457600080fd5b50565b801515811461512457600080fdfea2646970667358221220e4976220094d47ac2913fb8e8b7fa2d95cf11f987946b5f2d30c14746774f6c864736f6c63430008070033",
    "sourcePath": "c:/Users/STC/Documents/GitHub/USDT-Binario/contracts/BinariSystem.sol",
    "compiler": {
        "name": "solc",
        "version": "0.8.7+commit.e28d00a7"
    },
    "functionHashes": {
        "ChangeTokenOTRO(address)": "96ba5363",
        "ChangeTokenPrincipal(address)": "50da983f",
        "ChangeTokenSalida(address)": "6d038a03",
        "MIN_RETIRO()": "6c529279",
        "MIN_RETIRO_interno()": "4bdcd429",
        "active(uint256)": "8033d581",
        "actualizarArrayBool(bool[])": "7fcc1e36",
        "actualizarArrayUint256(uint256[])": "7367b080",
        "actualizarNetwork(address[])": "1ce7f99b",
        "addPlan(uint256)": "6999c45e",
        "addressToId(address)": "cb0e0d7d",
        "allnetwork(address[])": "7faee047",
        "api()": "d2c18e0b",
        "asignarPlan(address,uint256,address,uint256)": "ebe690bd",
        "asignarPuntosBinarios(address,uint256,uint256)": "5a090c2d",
        "basePorcientos()": "faafa907",
        "buyPlan(uint256)": "a80b223b",
        "buyValue(uint256)": "c8065ede",
        "column(address,uint256)": "15e8392b",
        "controlBinario(bool)": "9d1a5ea1",
        "controlReferidos(bool)": "d8de4064",
        "depositos(address)": "664e62b9",
        "descuento()": "7b0412ed",
        "dias()": "ab6db199",
        "handLeft(address)": "55465fa5",
        "handRigth(address)": "6a88e297",
        "idToAddress(uint256)": "2a2d0c47",
        "insertionLeft(address[])": "6bf199ff",
        "insertionRigth(address[])": "42ccc234",
        "investors(address)": "6f7bc9be",
        "lastUserId()": "348d4487",
        "maxTime()": "22e67e71",
        "owner()": "8da5cb5b",
        "padre(address)": "b35f0a8f",
        "payValue(uint256)": "67583cf8",
        "personas()": "cc759ba2",
        "personasBinary(address)": "4e929b0f",
        "plans(uint256)": "b1620616",
        "plansLength()": "26837aa8",
        "porcent()": "4728f718",
        "porcentPuntosBinario()": "c2307ee6",
        "porcientoBuy()": "ce51abb7",
        "porcientoPay()": "7e8ff94d",
        "porcientos(uint256)": "28cca719",
        "precioRegistro()": "7db9e9c6",
        "primervez(uint256)": "725fc270",
        "profit(address)": "02550e4d",
        "rate()": "2c4e722e",
        "rate2()": "f555b815",
        "rateSell()": "68b058eb",
        "redimOTRO()": "8929cbc5",
        "redimSITE01()": "78f15671",
        "redimSITE02(uint256)": "b9be8cdc",
        "redimTRX()": "cdb8bb2a",
        "registro(address,uint8)": "c14b8361",
        "setActive(uint256,bool)": "e60a955d",
        "setActiveAll(bool[])": "4dbc9d15",
        "setBase(uint256)": "38e80f68",
        "setDescuentoPorNoTrabajo(uint256,uint256)": "9de8c3cf",
        "setMIN_RETIRO(uint256)": "4de1be62",
        "setMaxTime(uint256)": "98b777e7",
        "setPlans(uint256,uint256)": "9496e6f8",
        "setPlansAll(uint256[])": "4e0e3323",
        "setPorcientos(uint256,uint256)": "1e403c35",
        "setPrimeravezPorcientos(uint256,uint256)": "54822522",
        "setPuntosPorcentajeBinario(uint256)": "64417c89",
        "setRates(uint256,uint256)": "ac6af280",
        "setRetorno(uint256)": "6589fa8a",
        "setTiempo(uint256)": "f90b3f5a",
        "setTiempoUnidades(uint256)": "2748d29b",
        "setWalletApi(address)": "c510c060",
        "setWalletstransfers(address,address,address)": "e506e1c0",
        "setporcientoBuyPay(uint256,uint256)": "edc2fe29",
        "setstate()": "85338e20",
        "sisBinario()": "6657a040",
        "sisReferidos()": "7f658166",
        "tiempo()": "50188c08",
        "tokenPago()": "16a64416",
        "tokenPricipal()": "b1390426",
        "totalInvested()": "5216aeec",
        "totalInvestors()": "29b8caff",
        "totalRefRewards()": "bfe0e020",
        "transfer1()": "343bfdff",
        "transfer2()": "248c44e8",
        "transfer3()": "21adf6a4",
        "transferOwnership(address)": "f2fde38b",
        "unidades()": "4b9b8203",
        "wallet1()": "1a026c96",
        "wallet2()": "0b8d0a28",
        "wallet3()": "3c918bae",
        "withdraw()": "3ccfd60b",
        "withdrawToDeposit()": "a00a8c9b",
        "withdrawable(address)": "ce513b6f",
        "withdrawableBinary(address)": "a95b4df9"
    },
    "gasEstimates": {
        "creation": {
            "codeDepositCost": "4168600",
            "executionCost": "infinite",
            "totalCost": "infinite"
        },
        "external": {
            "": "253",
            "ChangeTokenOTRO(address)": "26909",
            "ChangeTokenPrincipal(address)": "51086",
            "ChangeTokenSalida(address)": "51163",
            "MIN_RETIRO()": "2428",
            "MIN_RETIRO_interno()": "2386",
            "active(uint256)": "6392",
            "actualizarArrayBool(bool[])": "infinite",
            "actualizarArrayUint256(uint256[])": "infinite",
            "actualizarNetwork(address[])": "infinite",
            "addPlan(uint256)": "infinite",
            "addressToId(address)": "2646",
            "allnetwork(address[])": "infinite",
            "api()": "2448",
            "asignarPlan(address,uint256,address,uint256)": "infinite",
            "asignarPuntosBinarios(address,uint256,uint256)": "infinite",
            "basePorcientos()": "2471",
            "buyPlan(uint256)": "infinite",
            "buyValue(uint256)": "infinite",
            "column(address,uint256)": "infinite",
            "controlBinario(bool)": "26911",
            "controlReferidos(bool)": "26858",
            "depositos(address)": "infinite",
            "descuento()": "2430",
            "dias()": "2450",
            "handLeft(address)": "9131",
            "handRigth(address)": "9064",
            "idToAddress(uint256)": "2612",
            "insertionLeft(address[])": "infinite",
            "insertionRigth(address[])": "infinite",
            "investors(address)": "39335",
            "lastUserId()": "2363",
            "maxTime()": "2430",
            "owner()": "2427",
            "padre(address)": "2664",
            "payValue(uint256)": "infinite",
            "personas()": "2450",
            "personasBinary(address)": "infinite",
            "plans(uint256)": "4665",
            "plansLength()": "2468",
            "porcent()": "2473",
            "porcentPuntosBinario()": "2362",
            "porcientoBuy()": "2384",
            "porcientoPay()": "2363",
            "porcientos(uint256)": "4666",
            "precioRegistro()": "2452",
            "primervez(uint256)": "4644",
            "profit(address)": "infinite",
            "rate()": "2452",
            "rate2()": "2427",
            "rateSell()": "6713",
            "redimOTRO()": "infinite",
            "redimSITE01()": "infinite",
            "redimSITE02(uint256)": "infinite",
            "redimTRX()": "infinite",
            "registro(address,uint8)": "infinite",
            "setActive(uint256,bool)": "30826",
            "setActiveAll(bool[])": "infinite",
            "setBase(uint256)": "24625",
            "setDescuentoPorNoTrabajo(uint256,uint256)": "infinite",
            "setMIN_RETIRO(uint256)": "24670",
            "setMaxTime(uint256)": "24691",
            "setPlans(uint256,uint256)": "26983",
            "setPlansAll(uint256[])": "infinite",
            "setPorcientos(uint256,uint256)": "infinite",
            "setPrimeravezPorcientos(uint256,uint256)": "infinite",
            "setPuntosPorcentajeBinario(uint256)": "24603",
            "setRates(uint256,uint256)": "48921",
            "setRetorno(uint256)": "24625",
            "setTiempo(uint256)": "24689",
            "setTiempoUnidades(uint256)": "24604",
            "setWalletApi(address)": "26865",
            "setWalletstransfers(address,address,address)": "infinite",
            "setporcientoBuyPay(uint256,uint256)": "46790",
            "setstate()": "6707",
            "sisBinario()": "2455",
            "sisReferidos()": "2400",
            "tiempo()": "infinite",
            "tokenPago()": "2473",
            "tokenPricipal()": "2405",
            "totalInvested()": "2407",
            "totalInvestors()": "2408",
            "totalRefRewards()": "2451",
            "transfer1()": "2506",
            "transfer2()": "2484",
            "transfer3()": "2440",
            "transferOwnership(address)": "30504",
            "unidades()": "2364",
            "wallet1()": "2495",
            "wallet2()": "2429",
            "wallet3()": "2449",
            "withdraw()": "infinite",
            "withdrawToDeposit()": "infinite",
            "withdrawable(address)": "infinite",
            "withdrawableBinary(address)": "infinite"
        },
        "internal": {
            "rewardReferers(address,uint256,uint256[] memory)": "infinite"
        }
    }
}